{
  "contractName": "BakerRole",
  "abi": [
    {
      "inputs": [],
      "payable": false,
      "stateMutability": "nonpayable",
      "type": "constructor"
    },
    {
      "anonymous": false,
      "inputs": [
        {
          "indexed": true,
          "name": "account",
          "type": "address"
        }
      ],
      "name": "BakerAdded",
      "type": "event"
    },
    {
      "anonymous": false,
      "inputs": [
        {
          "indexed": true,
          "name": "account",
          "type": "address"
        }
      ],
      "name": "BakerRemoved",
      "type": "event"
    },
    {
      "constant": true,
      "inputs": [
        {
          "name": "account",
          "type": "address"
        }
      ],
      "name": "isBaker",
      "outputs": [
        {
          "name": "",
          "type": "bool"
        }
      ],
      "payable": false,
      "stateMutability": "view",
      "type": "function"
    },
    {
      "constant": false,
      "inputs": [
        {
          "name": "account",
          "type": "address"
        }
      ],
      "name": "addBaker",
      "outputs": [],
      "payable": false,
      "stateMutability": "nonpayable",
      "type": "function"
    },
    {
      "constant": false,
      "inputs": [],
      "name": "renounceBaker",
      "outputs": [],
      "payable": false,
      "stateMutability": "nonpayable",
      "type": "function"
    }
  ],
  "bytecode": "0x608060405234801561001057600080fd5b506100293361002e640100000000026401000000009004565b6101e8565b61004f816000610095640100000000026102a1179091906401000000009004565b8073ffffffffffffffffffffffffffffffffffffffff167fb1a2e274930bb9817feac31253d4a493b288518279a4c31f5b1b8f92c1921faf60405160405180910390a250565b600073ffffffffffffffffffffffffffffffffffffffff168173ffffffffffffffffffffffffffffffffffffffff16141515156100d157600080fd5b6100ea8282610154640100000000026401000000009004565b1515156100f657600080fd5b60018260000160008373ffffffffffffffffffffffffffffffffffffffff1673ffffffffffffffffffffffffffffffffffffffff16815260200190815260200160002060006101000a81548160ff0219169083151502179055505050565b60008073ffffffffffffffffffffffffffffffffffffffff168273ffffffffffffffffffffffffffffffffffffffff161415151561019157600080fd5b8260000160008373ffffffffffffffffffffffffffffffffffffffff1673ffffffffffffffffffffffffffffffffffffffff16815260200190815260200160002060009054906101000a900460ff16905092915050565b61042c806101f76000396000f300608060405260043610610057576000357c0100000000000000000000000000000000000000000000000000000000900463ffffffff16806383bf29ac1461005c5780638694bdc91461009f578063aa7c4f23146100fa575b600080fd5b34801561006857600080fd5b5061009d600480360381019080803573ffffffffffffffffffffffffffffffffffffffff169060200190929190505050610111565b005b3480156100ab57600080fd5b506100e0600480360381019080803573ffffffffffffffffffffffffffffffffffffffff169060200190929190505050610131565b604051808215151515815260200191505060405180910390f35b34801561010657600080fd5b5061010f61014e565b005b61011a33610131565b151561012557600080fd5b61012e81610159565b50565b60006101478260006101b390919063ffffffff16565b9050919050565b61015733610247565b565b61016d8160006102a190919063ffffffff16565b8073ffffffffffffffffffffffffffffffffffffffff167fb1a2e274930bb9817feac31253d4a493b288518279a4c31f5b1b8f92c1921faf60405160405180910390a250565b60008073ffffffffffffffffffffffffffffffffffffffff168273ffffffffffffffffffffffffffffffffffffffff16141515156101f057600080fd5b8260000160008373ffffffffffffffffffffffffffffffffffffffff1673ffffffffffffffffffffffffffffffffffffffff16815260200190815260200160002060009054906101000a900460ff16905092915050565b61025b81600061035190919063ffffffff16565b8073ffffffffffffffffffffffffffffffffffffffff167f9c3d93006f941d0bf55ca2d95ec93e36ba76fb3c2050d48a1e08c6f0ee7b580f60405160405180910390a250565b600073ffffffffffffffffffffffffffffffffffffffff168173ffffffffffffffffffffffffffffffffffffffff16141515156102dd57600080fd5b6102e782826101b3565b1515156102f357600080fd5b60018260000160008373ffffffffffffffffffffffffffffffffffffffff1673ffffffffffffffffffffffffffffffffffffffff16815260200190815260200160002060006101000a81548160ff0219169083151502179055505050565b600073ffffffffffffffffffffffffffffffffffffffff168173ffffffffffffffffffffffffffffffffffffffff161415151561038d57600080fd5b61039782826101b3565b15156103a257600080fd5b60008260000160008373ffffffffffffffffffffffffffffffffffffffff1673ffffffffffffffffffffffffffffffffffffffff16815260200190815260200160002060006101000a81548160ff02191690831515021790555050505600a165627a7a72305820a4fb65cf5a98b9b98a310d302055663debc9ee43c645832c7024a794b7a0441d0029",
  "source": "pragma solidity ^0.4.24;\n\n// Import the library 'Roles'\nimport \"./Roles.sol\";\n\n// Define a contract 'BakerRole' to manage this role - add, remove, check\ncontract BakerRole {\n  using Roles for Roles.Role;\n\n  // Define 2 events, one for Adding, and other for Removing\n  event BakerAdded(address indexed account);\n  event BakerRemoved(address indexed account);\n\n  // Define a struct 'bakers' by inheriting from 'Roles' library, struct Role\n  Roles.Role private bakers;\n\n  // In the constructor make the address that deploys this contract the 1st baker\n  constructor() public {\n    _addBaker(msg.sender);\n  }\n\n  // Define a modifier that checks to see if msg.sender has the appropriate role\n  modifier onlyBaker() {\n    require(isBaker(msg.sender));\n    _;\n  }\n\n  // Define a function 'isBaker' to check this role\n  function isBaker(address account) public view returns (bool) {\n    return bakers.has(account);\n  }\n\n  // Define a function 'addBaker' that adds this role\n  function addBaker(address account) public onlyBaker {\n    _addBaker(account);\n  }\n\n  // Define a function 'renounceBaker' to renounce this role\n  function renounceBaker() public {\n    _removeBaker(msg.sender);\n  }\n\n  // Define an internal function '_addBaker' to add this role, called by 'addBaker'\n  function _addBaker(address account) internal {\n    bakers.add(account);\n    emit BakerAdded(account);\n  }\n\n  // Define an internal function '_removeBaker' to remove this role, called by 'removeBaker'\n  function _removeBaker(address account) internal {\n    bakers.remove(account);\n    emit BakerRemoved(account);\n  }\n}",
  "sourcePath": "/Users/admin/Documents/projects/BLOCKCHAIN-UDACITY/Project-6b/project-6/contracts/bakeryaccesscontrol/BakerRole.sol",
  "compiler": {
    "name": "solc",
    "version": "0.4.25+commit.59dbf8f1.Emscripten.clang"
  },
  "schemaVersion": "2.0.2",
  "updatedAt": "2019-03-03T19:01:52.307Z"
}