{
  "contractName": "DeliveryAgentRole",
  "abi": [
    {
      "inputs": [],
      "payable": false,
      "stateMutability": "nonpayable",
      "type": "constructor"
    },
    {
      "anonymous": false,
      "inputs": [
        {
          "indexed": true,
          "name": "account",
          "type": "address"
        }
      ],
      "name": "deliveryAgentAdded",
      "type": "event"
    },
    {
      "anonymous": false,
      "inputs": [
        {
          "indexed": true,
          "name": "account",
          "type": "address"
        }
      ],
      "name": "deliveryAgentRemoved",
      "type": "event"
    },
    {
      "constant": true,
      "inputs": [
        {
          "name": "account",
          "type": "address"
        }
      ],
      "name": "isDeliveryAgent",
      "outputs": [
        {
          "name": "",
          "type": "bool"
        }
      ],
      "payable": false,
      "stateMutability": "view",
      "type": "function"
    },
    {
      "constant": false,
      "inputs": [
        {
          "name": "account",
          "type": "address"
        }
      ],
      "name": "addDeliveryAgent",
      "outputs": [],
      "payable": false,
      "stateMutability": "nonpayable",
      "type": "function"
    },
    {
      "constant": false,
      "inputs": [],
      "name": "renounceDeliveryAgent",
      "outputs": [],
      "payable": false,
      "stateMutability": "nonpayable",
      "type": "function"
    }
  ],
  "bytecode": "0x608060405234801561001057600080fd5b506100293361002e640100000000026401000000009004565b6101e8565b61004f816000610095640100000000026102a1179091906401000000009004565b8073ffffffffffffffffffffffffffffffffffffffff167f5df38de6012bf22af34752ec3875e951e2c5481256d4f767ce35052fad66a87460405160405180910390a250565b600073ffffffffffffffffffffffffffffffffffffffff168173ffffffffffffffffffffffffffffffffffffffff16141515156100d157600080fd5b6100ea8282610154640100000000026401000000009004565b1515156100f657600080fd5b60018260000160008373ffffffffffffffffffffffffffffffffffffffff1673ffffffffffffffffffffffffffffffffffffffff16815260200190815260200160002060006101000a81548160ff0219169083151502179055505050565b60008073ffffffffffffffffffffffffffffffffffffffff168273ffffffffffffffffffffffffffffffffffffffff161415151561019157600080fd5b8260000160008373ffffffffffffffffffffffffffffffffffffffff1673ffffffffffffffffffffffffffffffffffffffff16815260200190815260200160002060009054906101000a900460ff16905092915050565b61042c806101f76000396000f300608060405260043610610057576000357c0100000000000000000000000000000000000000000000000000000000900463ffffffff168063192dfff91461005c5780638143bd061461009f578063c70e9eec146100b6575b600080fd5b34801561006857600080fd5b5061009d600480360381019080803573ffffffffffffffffffffffffffffffffffffffff169060200190929190505050610111565b005b3480156100ab57600080fd5b506100b4610131565b005b3480156100c257600080fd5b506100f7600480360381019080803573ffffffffffffffffffffffffffffffffffffffff16906020019092919050505061013c565b604051808215151515815260200191505060405180910390f35b61011a3361013c565b151561012557600080fd5b61012e81610159565b50565b61013a336101b3565b565b600061015282600061020d90919063ffffffff16565b9050919050565b61016d8160006102a190919063ffffffff16565b8073ffffffffffffffffffffffffffffffffffffffff167f5df38de6012bf22af34752ec3875e951e2c5481256d4f767ce35052fad66a87460405160405180910390a250565b6101c781600061035190919063ffffffff16565b8073ffffffffffffffffffffffffffffffffffffffff167f8251319b90faed74a7f1215b9b00d161c9f4810319ae51806495b9dffb65702a60405160405180910390a250565b60008073ffffffffffffffffffffffffffffffffffffffff168273ffffffffffffffffffffffffffffffffffffffff161415151561024a57600080fd5b8260000160008373ffffffffffffffffffffffffffffffffffffffff1673ffffffffffffffffffffffffffffffffffffffff16815260200190815260200160002060009054906101000a900460ff16905092915050565b600073ffffffffffffffffffffffffffffffffffffffff168173ffffffffffffffffffffffffffffffffffffffff16141515156102dd57600080fd5b6102e7828261020d565b1515156102f357600080fd5b60018260000160008373ffffffffffffffffffffffffffffffffffffffff1673ffffffffffffffffffffffffffffffffffffffff16815260200190815260200160002060006101000a81548160ff0219169083151502179055505050565b600073ffffffffffffffffffffffffffffffffffffffff168173ffffffffffffffffffffffffffffffffffffffff161415151561038d57600080fd5b610397828261020d565b15156103a257600080fd5b60008260000160008373ffffffffffffffffffffffffffffffffffffffff1673ffffffffffffffffffffffffffffffffffffffff16815260200190815260200160002060006101000a81548160ff02191690831515021790555050505600a165627a7a7230582015978422d82038ba5939f6ecac5341c9de65fbbba0357014524e16e5e04e8bce0029",
  "source": "pragma solidity ^0.4.24;\n\n// Import the library 'Roles'\nimport \"./Roles.sol\";\n\n// Define a contract 'DistributorRole' to manage this role - add, remove, check\ncontract DeliveryAgentRole {\n  using Roles for Roles.Role;\n\n  // Define 2 events, one for Adding, and other for Removing\n  event deliveryAgentAdded(address indexed account);\n  event deliveryAgentRemoved(address indexed account);\n\n  // Define a struct 'deliveryAgents' by inheriting from 'Roles' library, struct Role\n  Roles.Role private deliveryAgents;\n\n  // In the constructor make the address that deploys this contract the 1st deliveryAgent\n  constructor() public {\n \n    _addDeliveryAgent(msg.sender);\n\n  }\n\n  // Define a modifier that checks to see if msg.sender has the appropriate role\n  modifier onlyDeliveryAgent() {\n    require(isDeliveryAgent(msg.sender));\n\n    _;\n  }\n\n  // Define a function 'isDeliveryAgent' to check this role\n  function isDeliveryAgent(address account) public view returns (bool) {\n    return deliveryAgents.has(account);\n\n  }\n\n  // Define a function 'addDeliveryAgent' that adds this role\n  function addDeliveryAgent(address account) public onlyDeliveryAgent {\n    _addDeliveryAgent(account);\n\n  }\n\n  // Define a function 'renounceDeliveryAgent' to renounce this role\n  function renounceDeliveryAgent() public {\n    _removeDeliveryAgent(msg.sender);\n\n  }\n\n  // Define an internal function '_addDeliveryAgent' to add this role, called by '_ddDeliveryAgent'\n  function _addDeliveryAgent(address account) internal {\n    deliveryAgents.add(account);\n    emit deliveryAgentAdded(account);\n  }\n\n  // Define an internal function '_removeDeliveryAgent' to remove this role, called by 'removeDeliveryAgent'\n  function _removeDeliveryAgent(address account) internal {\n    deliveryAgents.remove(account);\n    emit deliveryAgentRemoved(account);\n  }\n}",
  "sourcePath": "/Users/admin/Documents/projects/BLOCKCHAIN-UDACITY/Project-6b/project-6/contracts/bakeryaccesscontrol/DeliveryAgentRole.sol",
  "compiler": {
    "name": "solc",
    "version": "0.4.25+commit.59dbf8f1.Emscripten.clang"
  },
  "schemaVersion": "2.0.2",
  "updatedAt": "2019-03-02T14:43:37.985Z"
}