{
  "contractName": "SupplyChain",
  "abi": [
    {
      "constant": false,
      "inputs": [
        {
          "name": "account",
          "type": "address"
        }
      ],
      "name": "addConsumer",
      "outputs": [],
      "payable": false,
      "stateMutability": "nonpayable",
      "type": "function"
    },
    {
      "constant": false,
      "inputs": [
        {
          "name": "account",
          "type": "address"
        }
      ],
      "name": "addDeliveryAgent",
      "outputs": [],
      "payable": false,
      "stateMutability": "nonpayable",
      "type": "function"
    },
    {
      "constant": false,
      "inputs": [],
      "name": "renounceConsumer",
      "outputs": [],
      "payable": false,
      "stateMutability": "nonpayable",
      "type": "function"
    },
    {
      "constant": false,
      "inputs": [],
      "name": "renounceDeliveryAgent",
      "outputs": [],
      "payable": false,
      "stateMutability": "nonpayable",
      "type": "function"
    },
    {
      "constant": true,
      "inputs": [
        {
          "name": "account",
          "type": "address"
        }
      ],
      "name": "isConsumer",
      "outputs": [
        {
          "name": "",
          "type": "bool"
        }
      ],
      "payable": false,
      "stateMutability": "view",
      "type": "function"
    },
    {
      "constant": false,
      "inputs": [
        {
          "name": "account",
          "type": "address"
        }
      ],
      "name": "addBaker",
      "outputs": [],
      "payable": false,
      "stateMutability": "nonpayable",
      "type": "function"
    },
    {
      "constant": true,
      "inputs": [
        {
          "name": "account",
          "type": "address"
        }
      ],
      "name": "isBaker",
      "outputs": [
        {
          "name": "",
          "type": "bool"
        }
      ],
      "payable": false,
      "stateMutability": "view",
      "type": "function"
    },
    {
      "constant": false,
      "inputs": [],
      "name": "renounceBaker",
      "outputs": [],
      "payable": false,
      "stateMutability": "nonpayable",
      "type": "function"
    },
    {
      "constant": true,
      "inputs": [
        {
          "name": "account",
          "type": "address"
        }
      ],
      "name": "isDeliveryAgent",
      "outputs": [
        {
          "name": "",
          "type": "bool"
        }
      ],
      "payable": false,
      "stateMutability": "view",
      "type": "function"
    },
    {
      "inputs": [],
      "payable": true,
      "stateMutability": "payable",
      "type": "constructor"
    },
    {
      "anonymous": false,
      "inputs": [
        {
          "indexed": false,
          "name": "upc",
          "type": "uint256"
        }
      ],
      "name": "Baked",
      "type": "event"
    },
    {
      "anonymous": false,
      "inputs": [
        {
          "indexed": false,
          "name": "upc",
          "type": "uint256"
        }
      ],
      "name": "ForSale",
      "type": "event"
    },
    {
      "anonymous": false,
      "inputs": [
        {
          "indexed": false,
          "name": "upc",
          "type": "uint256"
        }
      ],
      "name": "Sold",
      "type": "event"
    },
    {
      "anonymous": false,
      "inputs": [
        {
          "indexed": false,
          "name": "upc",
          "type": "uint256"
        }
      ],
      "name": "Shipped",
      "type": "event"
    },
    {
      "anonymous": false,
      "inputs": [
        {
          "indexed": false,
          "name": "upc",
          "type": "uint256"
        }
      ],
      "name": "Delivered",
      "type": "event"
    },
    {
      "anonymous": false,
      "inputs": [
        {
          "indexed": false,
          "name": "upc",
          "type": "uint256"
        }
      ],
      "name": "Received",
      "type": "event"
    },
    {
      "anonymous": false,
      "inputs": [
        {
          "indexed": true,
          "name": "account",
          "type": "address"
        }
      ],
      "name": "deliveryAgentAdded",
      "type": "event"
    },
    {
      "anonymous": false,
      "inputs": [
        {
          "indexed": true,
          "name": "account",
          "type": "address"
        }
      ],
      "name": "deliveryAgentRemoved",
      "type": "event"
    },
    {
      "anonymous": false,
      "inputs": [
        {
          "indexed": true,
          "name": "account",
          "type": "address"
        }
      ],
      "name": "ConsumerAdded",
      "type": "event"
    },
    {
      "anonymous": false,
      "inputs": [
        {
          "indexed": true,
          "name": "account",
          "type": "address"
        }
      ],
      "name": "ConsumerRemoved",
      "type": "event"
    },
    {
      "anonymous": false,
      "inputs": [
        {
          "indexed": true,
          "name": "account",
          "type": "address"
        }
      ],
      "name": "BakerAdded",
      "type": "event"
    },
    {
      "anonymous": false,
      "inputs": [
        {
          "indexed": true,
          "name": "account",
          "type": "address"
        }
      ],
      "name": "BakerRemoved",
      "type": "event"
    },
    {
      "constant": false,
      "inputs": [],
      "name": "kill",
      "outputs": [],
      "payable": false,
      "stateMutability": "nonpayable",
      "type": "function"
    },
    {
      "constant": false,
      "inputs": [
        {
          "name": "_upc",
          "type": "uint256"
        },
        {
          "name": "_originBakerID",
          "type": "address"
        },
        {
          "name": "_originBakerName",
          "type": "string"
        },
        {
          "name": "_originBakerInformation",
          "type": "string"
        },
        {
          "name": "_productNotes",
          "type": "string"
        },
        {
          "name": "_productPrice",
          "type": "uint256"
        }
      ],
      "name": "bakeCookies",
      "outputs": [],
      "payable": false,
      "stateMutability": "nonpayable",
      "type": "function"
    },
    {
      "constant": false,
      "inputs": [
        {
          "name": "_upc",
          "type": "uint256"
        }
      ],
      "name": "addCookieJarToOnlineStore",
      "outputs": [],
      "payable": false,
      "stateMutability": "nonpayable",
      "type": "function"
    },
    {
      "constant": false,
      "inputs": [
        {
          "name": "_upc",
          "type": "uint256"
        }
      ],
      "name": "buyCookieJar",
      "outputs": [],
      "payable": true,
      "stateMutability": "payable",
      "type": "function"
    },
    {
      "constant": false,
      "inputs": [
        {
          "name": "_upc",
          "type": "uint256"
        },
        {
          "name": "_deliveryAgentID",
          "type": "address"
        }
      ],
      "name": "shipCookieJar",
      "outputs": [],
      "payable": false,
      "stateMutability": "nonpayable",
      "type": "function"
    },
    {
      "constant": false,
      "inputs": [
        {
          "name": "_upc",
          "type": "uint256"
        }
      ],
      "name": "DeleverCookieJAr",
      "outputs": [],
      "payable": false,
      "stateMutability": "nonpayable",
      "type": "function"
    },
    {
      "constant": false,
      "inputs": [
        {
          "name": "_upc",
          "type": "uint256"
        }
      ],
      "name": "receiveItem",
      "outputs": [],
      "payable": false,
      "stateMutability": "nonpayable",
      "type": "function"
    },
    {
      "constant": true,
      "inputs": [
        {
          "name": "_upc",
          "type": "uint256"
        }
      ],
      "name": "fetchItemBufferOne",
      "outputs": [
        {
          "name": "itemSKU",
          "type": "uint256"
        },
        {
          "name": "itemUPC",
          "type": "uint256"
        },
        {
          "name": "ownerID",
          "type": "address"
        },
        {
          "name": "originBakerID",
          "type": "address"
        },
        {
          "name": "originBakerName",
          "type": "string"
        },
        {
          "name": "originBakerInformation",
          "type": "string"
        }
      ],
      "payable": false,
      "stateMutability": "view",
      "type": "function"
    },
    {
      "constant": true,
      "inputs": [
        {
          "name": "_upc",
          "type": "uint256"
        }
      ],
      "name": "fetchItemBufferTwo",
      "outputs": [
        {
          "name": "itemSKU",
          "type": "uint256"
        },
        {
          "name": "itemUPC",
          "type": "uint256"
        },
        {
          "name": "productID",
          "type": "uint256"
        },
        {
          "name": "productNotes",
          "type": "string"
        },
        {
          "name": "productPrice",
          "type": "uint256"
        },
        {
          "name": "itemState",
          "type": "uint256"
        },
        {
          "name": "deliveryAgentID",
          "type": "address"
        },
        {
          "name": "consumerID",
          "type": "address"
        }
      ],
      "payable": false,
      "stateMutability": "view",
      "type": "function"
    }
  ],
  "bytecode": "0x60806040526200001e33620000a9640100000000026401000000009004565b620000383362000113640100000000026401000000009004565b62000052336200017d640100000000026401000000009004565b33600360006101000a81548173ffffffffffffffffffffffffffffffffffffffff021916908373ffffffffffffffffffffffffffffffffffffffff160217905550600160058190555060016004819055506200033f565b620000cd816000620001e76401000000000262001b21179091906401000000009004565b8073ffffffffffffffffffffffffffffffffffffffff167fb1a2e274930bb9817feac31253d4a493b288518279a4c31f5b1b8f92c1921faf60405160405180910390a250565b62000137816001620001e76401000000000262001b21179091906401000000009004565b8073ffffffffffffffffffffffffffffffffffffffff167f28b26e7a3d20aedbc5f8f2ebf7da671c0491723a2b78f47a097b0e46dee0714260405160405180910390a250565b620001a1816002620001e76401000000000262001b21179091906401000000009004565b8073ffffffffffffffffffffffffffffffffffffffff167f5df38de6012bf22af34752ec3875e951e2c5481256d4f767ce35052fad66a87460405160405180910390a250565b600073ffffffffffffffffffffffffffffffffffffffff168173ffffffffffffffffffffffffffffffffffffffff16141515156200022457600080fd5b6200023f8282620002aa640100000000026401000000009004565b1515156200024c57600080fd5b60018260000160008373ffffffffffffffffffffffffffffffffffffffff1673ffffffffffffffffffffffffffffffffffffffff16815260200190815260200160002060006101000a81548160ff0219169083151502179055505050565b60008073ffffffffffffffffffffffffffffffffffffffff168273ffffffffffffffffffffffffffffffffffffffff1614151515620002e857600080fd5b8260000160008373ffffffffffffffffffffffffffffffffffffffff1673ffffffffffffffffffffffffffffffffffffffff16815260200190815260200160002060009054906101000a900460ff16905092915050565b611d51806200034f6000396000f3006080604052600436106100fc576000357c0100000000000000000000000000000000000000000000000000000000900463ffffffff168063112940f914610101578063192dfff9146101445780633d3f1aa11461018757806341c0e1b5146101d457806361e6982d146101eb57806366187b5c1461020257806366225ff91461022f57806377c459131461035e5780638143bd06146104e4578063834ff739146104fb57806383bf29ac146105565780638694bdc914610599578063a26be999146105f4578063aa7c4f2314610621578063ad7bec2514610638578063c70e9eec14610658578063c87fb284146106b3578063e543b5ea146107dc575b600080fd5b34801561010d57600080fd5b50610142600480360381019080803573ffffffffffffffffffffffffffffffffffffffff169060200190929190505050610809565b005b34801561015057600080fd5b50610185600480360381019080803573ffffffffffffffffffffffffffffffffffffffff169060200190929190505050610829565b005b34801561019357600080fd5b506101d260048036038101908080359060200190929190803573ffffffffffffffffffffffffffffffffffffffff169060200190929190505050610849565b005b3480156101e057600080fd5b506101e96109cd565b005b3480156101f757600080fd5b50610200610a60565b005b34801561020e57600080fd5b5061022d60048036038101908080359060200190929190505050610a6b565b005b34801561023b57600080fd5b5061025a60048036038101908080359060200190929190505050610b90565b60405180898152602001888152602001878152602001806020018681526020018581526020018473ffffffffffffffffffffffffffffffffffffffff1673ffffffffffffffffffffffffffffffffffffffff1681526020018373ffffffffffffffffffffffffffffffffffffffff1673ffffffffffffffffffffffffffffffffffffffff168152602001828103825287818151815260200191508051906020019080838360005b8381101561031c578082015181840152602081019050610301565b50505050905090810190601f1680156103495780820380516001836020036101000a031916815260200191505b50995050505050505050505060405180910390f35b34801561036a57600080fd5b5061038960048036038101908080359060200190929190505050610d78565b604051808781526020018681526020018573ffffffffffffffffffffffffffffffffffffffff1673ffffffffffffffffffffffffffffffffffffffff1681526020018473ffffffffffffffffffffffffffffffffffffffff1673ffffffffffffffffffffffffffffffffffffffff1681526020018060200180602001838103835285818151815260200191508051906020019080838360005b8381101561043d578082015181840152602081019050610422565b50505050905090810190601f16801561046a5780820380516001836020036101000a031916815260200191505b50838103825284818151815260200191508051906020019080838360005b838110156104a3578082015181840152602081019050610488565b50505050905090810190601f1680156104d05780820380516001836020036101000a031916815260200191505b509850505050505050505060405180910390f35b3480156104f057600080fd5b506104f9610fa2565b005b34801561050757600080fd5b5061053c600480360381019080803573ffffffffffffffffffffffffffffffffffffffff169060200190929190505050610fad565b604051808215151515815260200191505060405180910390f35b34801561056257600080fd5b50610597600480360381019080803573ffffffffffffffffffffffffffffffffffffffff169060200190929190505050610fca565b005b3480156105a557600080fd5b506105da600480360381019080803573ffffffffffffffffffffffffffffffffffffffff169060200190929190505050610fea565b604051808215151515815260200191505060405180910390f35b34801561060057600080fd5b5061061f60048036038101908080359060200190929190505050611007565b005b34801561062d57600080fd5b50610636611149565b005b61065660048036038101908080359060200190929190505050611154565b005b34801561066457600080fd5b50610699600480360381019080803573ffffffffffffffffffffffffffffffffffffffff16906020019092919050505061142a565b604051808215151515815260200191505060405180910390f35b3480156106bf57600080fd5b506107da60048036038101908080359060200190929190803573ffffffffffffffffffffffffffffffffffffffff169060200190929190803590602001908201803590602001908080601f0160208091040260200160405190810160405280939291908181526020018383808284378201915050505050509192919290803590602001908201803590602001908080601f0160208091040260200160405190810160405280939291908181526020018383808284378201915050505050509192919290803590602001908201803590602001908080601f016020809104026020016040519081016040528093929190818152602001838380828437820191505050505050919291929080359060200190929190505050611447565b005b3480156107e857600080fd5b5061080760048036038101908080359060200190929190505050611743565b005b61081233610fad565b151561081d57600080fd5b61082681611871565b50565b6108323361142a565b151561083d57600080fd5b610846816118cb565b50565b816002600581111561085757fe5b6006600083815260200190815260200160002060090160009054906101000a900460ff16600581111561088657fe5b14151561089257600080fd5b6006600084815260200190815260200160002060030160009054906101000a900473ffffffffffffffffffffffffffffffffffffffff168073ffffffffffffffffffffffffffffffffffffffff163373ffffffffffffffffffffffffffffffffffffffff1614151561090357600080fd5b60036006600086815260200190815260200160002060090160006101000a81548160ff0219169083600581111561093657fe5b0217905550826006600086815260200190815260200160002060090160016101000a81548173ffffffffffffffffffffffffffffffffffffffff021916908373ffffffffffffffffffffffffffffffffffffffff1602179055507ff00b9a5725b80c54016f42114f6ed7792d22eecb116011c4afac29c57bef6c95846040518082815260200191505060405180910390a150505050565b600360009054906101000a900473ffffffffffffffffffffffffffffffffffffffff1673ffffffffffffffffffffffffffffffffffffffff163373ffffffffffffffffffffffffffffffffffffffff161415610a5e57600360009054906101000a900473ffffffffffffffffffffffffffffffffffffffff1673ffffffffffffffffffffffffffffffffffffffff16ff5b565b610a6933611925565b565b8060036005811115610a7957fe5b6006600083815260200190815260200160002060090160009054906101000a900460ff166005811115610aa857fe5b141515610ab457600080fd5b610abd3361142a565b1515610ac857600080fd5b336006600084815260200190815260200160002060090160016101000a81548173ffffffffffffffffffffffffffffffffffffffff021916908373ffffffffffffffffffffffffffffffffffffffff16021790555060046006600084815260200190815260200160002060090160006101000a81548160ff02191690836005811115610b5057fe5b02179055507ffcc296b8bdd64e3f1d1faadef50cb2d6550f645316330fe57cb1dd7e0612ead0826040518082815260200191505060405180910390a15050565b60008060006060600080600080600660008a8152602001908152602001600020600001549750600660008a8152602001908152602001600020600101549650600660008a8152602001908152602001600020600601549550600660008a81526020019081526020016000206007018054600181600116156101000203166002900480601f016020809104026020016040519081016040528092919081815260200182805460018160011615610100020316600290048015610c925780601f10610c6757610100808354040283529160200191610c92565b820191906000526020600020905b815481529060010190602001808311610c7557829003601f168201915b50505050509450600660008a8152602001908152602001600020600801549350600660008a815260200190815260200160002060090160009054906101000a900460ff166005811115610ce157fe5b9250600660008a815260200190815260200160002060090160019054906101000a900473ffffffffffffffffffffffffffffffffffffffff169150600660008a8152602001908152602001600020600a0160009054906101000a900473ffffffffffffffffffffffffffffffffffffffff169050878787878787878797509750975097509750975097509750919395975091939597565b60008060008060608060066000888152602001908152602001600020600001549550600660008881526020019081526020016000206001015494506006600088815260200190815260200160002060020160009054906101000a900473ffffffffffffffffffffffffffffffffffffffff1693506006600088815260200190815260200160002060030160009054906101000a900473ffffffffffffffffffffffffffffffffffffffff169250600660008881526020019081526020016000206004018054600181600116156101000203166002900480601f016020809104026020016040519081016040528092919081815260200182805460018160011615610100020316600290048015610ecf5780601f10610ea457610100808354040283529160200191610ecf565b820191906000526020600020905b815481529060010190602001808311610eb257829003601f168201915b50505050509150600660008881526020019081526020016000206005018054600181600116156101000203166002900480601f016020809104026020016040519081016040528092919081815260200182805460018160011615610100020316600290048015610f805780601f10610f5557610100808354040283529160200191610f80565b820191906000526020600020905b815481529060010190602001808311610f6357829003601f168201915b5050505050905085858585858595509550955095509550955091939550919395565b610fab3361197f565b565b6000610fc38260016119d990919063ffffffff16565b9050919050565b610fd333610fea565b1515610fde57600080fd5b610fe781611a6d565b50565b60006110008260006119d990919063ffffffff16565b9050919050565b806004600581111561101557fe5b6006600083815260200190815260200160002060090160009054906101000a900460ff16600581111561104457fe5b14151561105057600080fd5b61105933610fad565b151561106457600080fd5b60066000838152602001908152602001600020600a0160009054906101000a900473ffffffffffffffffffffffffffffffffffffffff168073ffffffffffffffffffffffffffffffffffffffff163373ffffffffffffffffffffffffffffffffffffffff161415156110d557600080fd5b60056006600085815260200190815260200160002060090160006101000a81548160ff0219169083600581111561110857fe5b02179055507fa8142743f8f70a4c26f3691cf4ed59718381fb2f18070ec52be1f1022d855557836040518082815260200191505060405180910390a1505050565b61115233611ac7565b565b806001600581111561116257fe5b6006600083815260200190815260200160002060090160009054906101000a900460ff16600581111561119157fe5b14151561119d57600080fd5b60066000838152602001908152602001600020600801548034101515156111c357600080fd5b826000806111d033610fad565b15156111db57600080fd5b336006600088815260200190815260200160002060020160006101000a81548173ffffffffffffffffffffffffffffffffffffffff021916908373ffffffffffffffffffffffffffffffffffffffff1602179055503360066000888152602001908152602001600020600a0160006101000a81548173ffffffffffffffffffffffffffffffffffffffff021916908373ffffffffffffffffffffffffffffffffffffffff16021790555060026006600088815260200190815260200160002060090160006101000a81548160ff021916908360058111156112b857fe5b02179055506006600087815260200190815260200160002060030160009054906101000a900473ffffffffffffffffffffffffffffffffffffffff1673ffffffffffffffffffffffffffffffffffffffff166108fc60066000898152602001908152602001600020600801549081150290604051600060405180830381858888f1935050505015801561134f573d6000803e3d6000fd5b507f92f64ca637d023f354075a4be751b169c1a8a9ccb6d33cdd0cb3520543995727866040518082815260200191505060405180910390a160066000848152602001908152602001600020600801549150813403905060066000848152602001908152602001600020600a0160009054906101000a900473ffffffffffffffffffffffffffffffffffffffff1673ffffffffffffffffffffffffffffffffffffffff166108fc829081150290604051600060405180830381858888f19350505050158015611421573d6000803e3d6000fd5b50505050505050565b60006114408260026119d990919063ffffffff16565b9050919050565b61145033610fea565b151561145b57600080fd5b6101806040519081016040528060055481526020018781526020018673ffffffffffffffffffffffffffffffffffffffff1681526020018673ffffffffffffffffffffffffffffffffffffffff16815260200185815260200184815260200187600554018152602001838152602001828152602001600060058111156114dd57fe5b8152602001600073ffffffffffffffffffffffffffffffffffffffff168152602001600073ffffffffffffffffffffffffffffffffffffffff1681525060066000888152602001908152602001600020600082015181600001556020820151816001015560408201518160020160006101000a81548173ffffffffffffffffffffffffffffffffffffffff021916908373ffffffffffffffffffffffffffffffffffffffff16021790555060608201518160030160006101000a81548173ffffffffffffffffffffffffffffffffffffffff021916908373ffffffffffffffffffffffffffffffffffffffff16021790555060808201518160040190805190602001906115eb929190611c80565b5060a0820151816005019080519060200190611608929190611c80565b5060c0820151816006015560e082015181600701908051906020019061162f929190611c80565b5061010082015181600801556101208201518160090160006101000a81548160ff0219169083600581111561166057fe5b02179055506101408201518160090160016101000a81548173ffffffffffffffffffffffffffffffffffffffff021916908373ffffffffffffffffffffffffffffffffffffffff16021790555061016082015181600a0160006101000a81548173ffffffffffffffffffffffffffffffffffffffff021916908373ffffffffffffffffffffffffffffffffffffffff1602179055509050506001600554016005819055507f12d0612eec052854649751b41d814a88302236d32a20b06aaff36fc2aecc9060866040518082815260200191505060405180910390a1505050505050565b806000600581111561175157fe5b6006600083815260200190815260200160002060090160009054906101000a900460ff16600581111561178057fe5b14151561178c57600080fd5b6006600083815260200190815260200160002060030160009054906101000a900473ffffffffffffffffffffffffffffffffffffffff168073ffffffffffffffffffffffffffffffffffffffff163373ffffffffffffffffffffffffffffffffffffffff161415156117fd57600080fd5b60016006600085815260200190815260200160002060090160006101000a81548160ff0219169083600581111561183057fe5b02179055507fa96ae0fc3224ebd79eebfe54bd130cc9cb94416cddd1f2386115e00b72532468836040518082815260200191505060405180910390a1505050565b611885816001611b2190919063ffffffff16565b8073ffffffffffffffffffffffffffffffffffffffff167f28b26e7a3d20aedbc5f8f2ebf7da671c0491723a2b78f47a097b0e46dee0714260405160405180910390a250565b6118df816002611b2190919063ffffffff16565b8073ffffffffffffffffffffffffffffffffffffffff167f5df38de6012bf22af34752ec3875e951e2c5481256d4f767ce35052fad66a87460405160405180910390a250565b611939816001611bd190919063ffffffff16565b8073ffffffffffffffffffffffffffffffffffffffff167fe3f5ed5f263f1f01764a96edfc7d025f511ec5f7d180e8816908b78bcf74f09860405160405180910390a250565b611993816002611bd190919063ffffffff16565b8073ffffffffffffffffffffffffffffffffffffffff167f8251319b90faed74a7f1215b9b00d161c9f4810319ae51806495b9dffb65702a60405160405180910390a250565b60008073ffffffffffffffffffffffffffffffffffffffff168273ffffffffffffffffffffffffffffffffffffffff1614151515611a1657600080fd5b8260000160008373ffffffffffffffffffffffffffffffffffffffff1673ffffffffffffffffffffffffffffffffffffffff16815260200190815260200160002060009054906101000a900460ff16905092915050565b611a81816000611b2190919063ffffffff16565b8073ffffffffffffffffffffffffffffffffffffffff167fb1a2e274930bb9817feac31253d4a493b288518279a4c31f5b1b8f92c1921faf60405160405180910390a250565b611adb816000611bd190919063ffffffff16565b8073ffffffffffffffffffffffffffffffffffffffff167f9c3d93006f941d0bf55ca2d95ec93e36ba76fb3c2050d48a1e08c6f0ee7b580f60405160405180910390a250565b600073ffffffffffffffffffffffffffffffffffffffff168173ffffffffffffffffffffffffffffffffffffffff1614151515611b5d57600080fd5b611b6782826119d9565b151515611b7357600080fd5b60018260000160008373ffffffffffffffffffffffffffffffffffffffff1673ffffffffffffffffffffffffffffffffffffffff16815260200190815260200160002060006101000a81548160ff0219169083151502179055505050565b600073ffffffffffffffffffffffffffffffffffffffff168173ffffffffffffffffffffffffffffffffffffffff1614151515611c0d57600080fd5b611c1782826119d9565b1515611c2257600080fd5b60008260000160008373ffffffffffffffffffffffffffffffffffffffff1673ffffffffffffffffffffffffffffffffffffffff16815260200190815260200160002060006101000a81548160ff0219169083151502179055505050565b828054600181600116156101000203166002900490600052602060002090601f016020900481019282601f10611cc157805160ff1916838001178555611cef565b82800160010185558215611cef579182015b82811115611cee578251825591602001919060010190611cd3565b5b509050611cfc9190611d00565b5090565b611d2291905b80821115611d1e576000816000905550600101611d06565b5090565b905600a165627a7a72305820c9b1d1043c9293fd4bdcea59ffd8d6ff502de6af57378db6e4a603a5e912335d0029",
  "source": "pragma solidity ^0.4.24;\n// Define a contract 'Supplychain'\nimport \"../bakeryaccesscontrol/BakerRole.sol\";\nimport \"../bakeryaccesscontrol/ConsumerRole.sol\";\nimport \"../bakeryaccesscontrol/DeliveryAgentRole.sol\";\nimport \"../coffeecore/Ownable.sol\";\n\n  contract SupplyChain is BakerRole, ConsumerRole, DeliveryAgentRole{\n\n  // Define 'owner'\n  address owner;\n\n  // Define a variable called 'upc' for Universal Product Code (UPC)\n  uint  upc;\n\n  // Define a variable called 'sku' for Stock Keeping Unit (SKU)\n  uint  sku;\n\n  // Define a public mapping 'items' that maps the UPC to an Item.\n  mapping (uint => Item) items;\n\n  // Define a public mapping 'itemsHistory' that maps the UPC to an array of TxHash, \n  // that   its journey through the supply chain -- to be sent from DApp.\n  mapping (uint => string[]) itemsHistory;\n  \n  // Define enum 'State' with the following values:\n  enum State \n  { \n    Baked,      // 0\n    ForSale,    // 1\n    Sold,       // 2\n    Shipped,    // 3\n    Delivered,  // 4\n    Received   // 5\n    \n    }\n\n  State constant defaultState = State.Baked;\n\n  // Define a struct 'Item' with the following fields:\n  struct Item {\n    uint    sku;  // Stock Keeping Unit (SKU)\n    uint    upc; // Universal Product Code (UPC), generated by the Farmer, goes on the package, can be verified by the Consumer\n    address ownerID;  // Metamask-Ethereum address of the current owner as the product moves through 8 stages\n    address originBakerID; // Metamask-Ethereum address of the Farmer\n    string  originBakerName; // Farmer Name\n    string  originBakerInformation;  // Farmer Information\n    uint    productID;  // Product ID potentially a combination of upc + sku\n    string  productNotes; // Product Notes\n    uint    productPrice; // Product Price\n    State   itemState;  // Product State as represented in the enum above\n    address deliveryAgentID;  // Metamask-Ethereum address of the Distributor\n    address consumerID; // Metamask-Ethereum address of the Consumer\n  }\n\n  // Define 4 events with the same 4 state values and accept 'upc' as input argument\n     event Baked(uint upc);\n   event ForSale(uint upc);\n  event Sold(uint upc);\n  event Shipped(uint upc);\n  event Delivered(uint upc);\n  event Received(uint upc);\n \n  // Define a modifer that checks to see if msg.sender == owner of the contract\n  modifier onlyOwner() {\n    require(msg.sender == owner);\n    _;\n  }\n\n  // Define a modifer that verifies the Caller\n  modifier verifyCaller (address _address) {\n    require(msg.sender == _address); \n     \n    _;\n  }\n\n  // Define a modifier that checks if the paid amount is sufficient to cover the price\n  modifier paidEnough(uint _price) { \n    require(msg.value >= _price); \n    _;\n  }\n  \n  // Define a modifier that checks the price and refunds the remaining balance\n  modifier checkValue(uint _upc) {\n    _;\n    uint _price = items[_upc].productPrice;\n    uint amountToReturn = msg.value - _price;\n    items[_upc].consumerID.transfer(amountToReturn);\n  }\n\n \n \n\n  // Define a modifier that checks if an item.state of a upc is ForSale\n  modifier baked(uint _upc) {\n    require(items[_upc].itemState == State.Baked);\n\n    _;\n  }\n \n\n  // Define a modifier that checks if an item.state of a upc is ForSale\n  modifier forSale(uint _upc) {\n    require(items[_upc].itemState == State.ForSale);\n\n    _;\n  }\n\n  // Define a modifier that checks if an item.state of a upc is Sold\n  modifier sold(uint _upc) {\n    require(items[_upc].itemState == State.Sold);\n    _;\n  }\n  \n  // Define a modifier that checks if an item.state of a upc is Shipped\n  modifier shipped(uint _upc) {\n    require(items[_upc].itemState == State.Shipped);\n\n    _;\n  }\n\n  // Define a modifier that checks if an item.state of a upc is delivered\n  modifier delivered(uint _upc) {\n    require(items[_upc].itemState == State.Delivered);\n\n    _;\n  }\n  // Define a modifier that checks if an item.state of a upc is Received\n  modifier received(uint _upc) {\n    require(items[_upc].itemState == State.Received);\n\n    _;\n  }\n\n  \n\n  // In the constructor set 'owner' to the address that instantiated the contract\n  // and set 'sku' to 1\n  // and set 'upc' to 1\n  constructor() public payable {\n    owner = msg.sender;\n    sku = 1;\n    upc = 1;\n  }\n\n  // Define a function 'kill' if required\n  function kill() public {\n    if (msg.sender == owner) {\n      selfdestruct(owner);\n    }\n  }\n\n  // Define a function 'bakeCookies' that allows a farmer to mark an item 'Harvested'\n  function bakeCookies(uint _upc, address _originBakerID, string _originBakerName, string _originBakerInformation, string  _productNotes, uint _productPrice) onlyBaker()  public {\n// Add the new item  \n    items[_upc] = Item({\n      sku: sku,\n      upc: _upc,\n      ownerID: _originBakerID,\n      productID: sku + _upc ,\n      originBakerID: _originBakerID,\n      originBakerName: _originBakerName,\n      originBakerInformation: _originBakerInformation ,\n      productNotes: _productNotes,\n      itemState: State.Baked,\n      productPrice: _productPrice,\n      deliveryAgentID:address(0),\n      consumerID: address(0)\n       });\n\n       // Increment sku\n    sku = sku + 1;\n    // Emit the appropriate event\n    emit Baked(_upc);\n  }\n  \n\n  // Define a function 'processtItem' that allows a farmer to mark an item 'Processed'\n  function addCookieJarToOnlineStore(uint _upc)  public \n  // Call modifier to check if upc has passed previous supply chain stage\n  \n  baked(_upc)\n  // Call modifier to verify caller of this function\n  \n          verifyCaller(items[_upc].originBakerID)\n\n  {\n    // Update the appropriate fields\n    items[_upc].itemState = State.ForSale;\n    // Emit the appropriate event\n    emit ForSale(_upc);\n  }\n\n  // Define a function 'packItem' that allows a farmer to mark an item 'Packed'\n  function buyCookieJar(uint _upc) public payable\n  // Call modifier to check if upc has passed previous supply chain stage\n  forSale(_upc)\n    // Call modifer to check if buyer has paid enough\n    paidEnough(items[_upc].productPrice)\n    // Call modifer to send any excess ether back to buyer\n    checkValue(_upc)\n  // Call modifier to verify caller of this function\n   onlyConsumer()\n  {\n\n        items[_upc].ownerID = msg.sender;\n        items[_upc].consumerID = msg.sender;\n        items[_upc].itemState = State.Sold; \n        // Transfer money to farmer\n        items[_upc].originBakerID.transfer(items[_upc].productPrice);\n        // emit the appropriate event\n        emit Sold(_upc);\n\n \n  }\n\n  // Define a function 'sellItem' that allows a farmer to mark an item 'ForSale'\n  function shipCookieJar(uint _upc,address _deliveryAgentID) public \n  // Call modifier to check if upc has passed previous supply chain stage\n    sold(_upc)\n \n  // Call modifier to verify caller of this function\n            verifyCaller(items[_upc].originBakerID)\n\n  {\n    // Update the appropriate fields\n        items[_upc].itemState = State.Shipped;\n        items[_upc].deliveryAgentID = _deliveryAgentID;\n\n    // Emit the appropriate event\n        emit Shipped(_upc);\n\n  }\n\n  // Define a function 'buyItem' that allows the disributor to mark an item 'Sold'\n  // Use the above defined modifiers to check if the item is available for sale, if the buyer has paid enough, \n  // and any excess ether sent is refunded back to the buyer\n  function DeleverCookieJAr(uint _upc) public  \n    // Call modifier to check if upc has passed previous supply chain stage\n    shipped(_upc)\n    // Call modifier to verify caller of this function\n    onlyDeliveryAgent()\n \n    {\n    \n    // Update the appropriate fields - ownerID, distributorID, itemState\n    \n    // Transfer money to farmer\n            items[_upc].deliveryAgentID = msg.sender;\n\n            items[_upc].itemState = State.Delivered;\n\n    // emit the appropriate event\n            emit Delivered(_upc);\n\n  }\n\n  \n\n  // Define a function 'receiveItem' that allows the retailer to mark an item 'Received'\n  // Use the above modifiers to check if the item is shipped\n  function receiveItem(uint _upc) public \n    // Call modifier to check if upc has passed previous supply chain stage\n    delivered(_upc)\n    // Access Control List enforced by calling Smart Contract / DApp\n    onlyConsumer()\n    verifyCaller(items[_upc].consumerID)\n\n    {\n    // Update the appropriate fields - ownerID, retailerID, itemState\n                items[_upc].itemState = State.Received;\n\n    // Emit the appropriate event\n                emit Received(_upc);\n\n  }\n\n   \n  // Define a function 'fetchItemBufferOne' that fetches the data\n  function fetchItemBufferOne(uint _upc) public view returns \n  (\n  uint    itemSKU,\n  uint    itemUPC,\n  address ownerID,\n  address originBakerID,\n  string  originBakerName,\n  string  originBakerInformation\n   ) \n  {\n  // Assign values to the 8 parameters\n \n  itemSKU =   items[_upc].sku ;\n   itemUPC  = items[_upc].upc;\n  ownerID  = items[_upc].ownerID;\n  originBakerID  = items[_upc].originBakerID;\n  originBakerName  = items[_upc].originBakerName;\n  originBakerInformation  = items[_upc].originBakerInformation;\n   return \n  (\n  itemSKU ,\n  itemUPC,\n  ownerID,\n  originBakerID,\n  originBakerName,\n  originBakerInformation\n   );\n  }\n\n  // Define a function 'fetchItemBufferTwo' that fetches the data\n  function fetchItemBufferTwo(uint _upc) public view returns \n  (\n  uint    itemSKU,\n  uint    itemUPC,\n  uint    productID,\n  string  productNotes,\n  uint    productPrice,\n  uint    itemState,\n  address deliveryAgentID,\n   address consumerID\n  ) \n  {\n\n  itemSKU =   items[_upc].sku ;\n  itemUPC  = items[_upc].upc;\n  productID  = items[_upc].productID;\n  productNotes  = items[_upc].productNotes;\n  productPrice  = items[_upc].productPrice;\n  itemState  = uint(items[_upc].itemState); \n  deliveryAgentID  = items[_upc].deliveryAgentID;\n  consumerID  = items[_upc].consumerID;\n    // Assign values to the 9 parameters\n    \n  return \n  (\n  itemSKU,\n  itemUPC,\n  productID,\n  productNotes,\n  productPrice,\n  itemState,\n  deliveryAgentID,\n  consumerID\n  );\n  }\n}\n",
  "sourcePath": "/Users/admin/Documents/projects/BLOCKCHAIN-UDACITY/Project-6b/project-6/contracts/coffeebase/SupplyChain.sol",
  "compiler": {
    "name": "solc",
    "version": "0.4.25+commit.59dbf8f1.Emscripten.clang"
  },
  "schemaVersion": "2.0.2",
  "updatedAt": "2019-03-02T14:43:37.996Z"
}