{
  "contractName": "SupplyChain",
  "abi": [
    {
      "constant": false,
      "inputs": [
        {
          "name": "account",
          "type": "address"
        }
      ],
      "name": "addConsumer",
      "outputs": [],
      "payable": false,
      "stateMutability": "nonpayable",
      "type": "function"
    },
    {
      "constant": false,
      "inputs": [
        {
          "name": "account",
          "type": "address"
        }
      ],
      "name": "addDeliveryAgent",
      "outputs": [],
      "payable": false,
      "stateMutability": "nonpayable",
      "type": "function"
    },
    {
      "constant": false,
      "inputs": [],
      "name": "renounceConsumer",
      "outputs": [],
      "payable": false,
      "stateMutability": "nonpayable",
      "type": "function"
    },
    {
      "constant": false,
      "inputs": [],
      "name": "renounceOwnership",
      "outputs": [],
      "payable": false,
      "stateMutability": "nonpayable",
      "type": "function"
    },
    {
      "constant": false,
      "inputs": [],
      "name": "renounceDeliveryAgent",
      "outputs": [],
      "payable": false,
      "stateMutability": "nonpayable",
      "type": "function"
    },
    {
      "constant": true,
      "inputs": [
        {
          "name": "account",
          "type": "address"
        }
      ],
      "name": "isConsumer",
      "outputs": [
        {
          "name": "",
          "type": "bool"
        }
      ],
      "payable": false,
      "stateMutability": "view",
      "type": "function"
    },
    {
      "constant": false,
      "inputs": [
        {
          "name": "account",
          "type": "address"
        }
      ],
      "name": "addBaker",
      "outputs": [],
      "payable": false,
      "stateMutability": "nonpayable",
      "type": "function"
    },
    {
      "constant": true,
      "inputs": [
        {
          "name": "account",
          "type": "address"
        }
      ],
      "name": "isBaker",
      "outputs": [
        {
          "name": "",
          "type": "bool"
        }
      ],
      "payable": false,
      "stateMutability": "view",
      "type": "function"
    },
    {
      "constant": true,
      "inputs": [],
      "name": "owner",
      "outputs": [
        {
          "name": "",
          "type": "address"
        }
      ],
      "payable": false,
      "stateMutability": "view",
      "type": "function"
    },
    {
      "constant": true,
      "inputs": [],
      "name": "isOwner",
      "outputs": [
        {
          "name": "",
          "type": "bool"
        }
      ],
      "payable": false,
      "stateMutability": "view",
      "type": "function"
    },
    {
      "constant": false,
      "inputs": [],
      "name": "renounceBaker",
      "outputs": [],
      "payable": false,
      "stateMutability": "nonpayable",
      "type": "function"
    },
    {
      "constant": true,
      "inputs": [
        {
          "name": "account",
          "type": "address"
        }
      ],
      "name": "isDeliveryAgent",
      "outputs": [
        {
          "name": "",
          "type": "bool"
        }
      ],
      "payable": false,
      "stateMutability": "view",
      "type": "function"
    },
    {
      "constant": false,
      "inputs": [
        {
          "name": "newOwner",
          "type": "address"
        }
      ],
      "name": "transferOwnership",
      "outputs": [],
      "payable": false,
      "stateMutability": "nonpayable",
      "type": "function"
    },
    {
      "inputs": [],
      "payable": true,
      "stateMutability": "payable",
      "type": "constructor"
    },
    {
      "anonymous": false,
      "inputs": [
        {
          "indexed": false,
          "name": "upc",
          "type": "uint256"
        }
      ],
      "name": "Baked",
      "type": "event"
    },
    {
      "anonymous": false,
      "inputs": [
        {
          "indexed": false,
          "name": "upc",
          "type": "uint256"
        }
      ],
      "name": "ForSale",
      "type": "event"
    },
    {
      "anonymous": false,
      "inputs": [
        {
          "indexed": false,
          "name": "upc",
          "type": "uint256"
        }
      ],
      "name": "Sold",
      "type": "event"
    },
    {
      "anonymous": false,
      "inputs": [
        {
          "indexed": false,
          "name": "upc",
          "type": "uint256"
        }
      ],
      "name": "Shipped",
      "type": "event"
    },
    {
      "anonymous": false,
      "inputs": [
        {
          "indexed": false,
          "name": "upc",
          "type": "uint256"
        }
      ],
      "name": "Delivered",
      "type": "event"
    },
    {
      "anonymous": false,
      "inputs": [
        {
          "indexed": false,
          "name": "upc",
          "type": "uint256"
        }
      ],
      "name": "Received",
      "type": "event"
    },
    {
      "anonymous": false,
      "inputs": [
        {
          "indexed": true,
          "name": "account",
          "type": "address"
        }
      ],
      "name": "deliveryAgentAdded",
      "type": "event"
    },
    {
      "anonymous": false,
      "inputs": [
        {
          "indexed": true,
          "name": "account",
          "type": "address"
        }
      ],
      "name": "deliveryAgentRemoved",
      "type": "event"
    },
    {
      "anonymous": false,
      "inputs": [
        {
          "indexed": true,
          "name": "account",
          "type": "address"
        }
      ],
      "name": "ConsumerAdded",
      "type": "event"
    },
    {
      "anonymous": false,
      "inputs": [
        {
          "indexed": true,
          "name": "account",
          "type": "address"
        }
      ],
      "name": "ConsumerRemoved",
      "type": "event"
    },
    {
      "anonymous": false,
      "inputs": [
        {
          "indexed": true,
          "name": "account",
          "type": "address"
        }
      ],
      "name": "BakerAdded",
      "type": "event"
    },
    {
      "anonymous": false,
      "inputs": [
        {
          "indexed": true,
          "name": "account",
          "type": "address"
        }
      ],
      "name": "BakerRemoved",
      "type": "event"
    },
    {
      "anonymous": false,
      "inputs": [
        {
          "indexed": true,
          "name": "oldOwner",
          "type": "address"
        },
        {
          "indexed": true,
          "name": "newOwner",
          "type": "address"
        }
      ],
      "name": "TransferOwnership",
      "type": "event"
    },
    {
      "constant": false,
      "inputs": [],
      "name": "kill",
      "outputs": [],
      "payable": false,
      "stateMutability": "nonpayable",
      "type": "function"
    },
    {
      "constant": false,
      "inputs": [
        {
          "name": "_upc",
          "type": "uint256"
        },
        {
          "name": "_originBakerID",
          "type": "address"
        },
        {
          "name": "_originBakerName",
          "type": "string"
        },
        {
          "name": "_originBakerInformation",
          "type": "string"
        },
        {
          "name": "_productNotes",
          "type": "string"
        },
        {
          "name": "_productPrice",
          "type": "uint256"
        }
      ],
      "name": "bakeCookies",
      "outputs": [],
      "payable": false,
      "stateMutability": "nonpayable",
      "type": "function"
    },
    {
      "constant": false,
      "inputs": [
        {
          "name": "_upc",
          "type": "uint256"
        }
      ],
      "name": "addCookieJarToOnlineStore",
      "outputs": [],
      "payable": false,
      "stateMutability": "nonpayable",
      "type": "function"
    },
    {
      "constant": false,
      "inputs": [
        {
          "name": "_upc",
          "type": "uint256"
        }
      ],
      "name": "buyCookieJar",
      "outputs": [],
      "payable": true,
      "stateMutability": "payable",
      "type": "function"
    },
    {
      "constant": false,
      "inputs": [
        {
          "name": "_upc",
          "type": "uint256"
        },
        {
          "name": "_deliveryAgentID",
          "type": "address"
        }
      ],
      "name": "shipCookieJar",
      "outputs": [],
      "payable": false,
      "stateMutability": "nonpayable",
      "type": "function"
    },
    {
      "constant": false,
      "inputs": [
        {
          "name": "_upc",
          "type": "uint256"
        }
      ],
      "name": "DeleverCookieJAr",
      "outputs": [],
      "payable": false,
      "stateMutability": "nonpayable",
      "type": "function"
    },
    {
      "constant": false,
      "inputs": [
        {
          "name": "_upc",
          "type": "uint256"
        }
      ],
      "name": "receiveItem",
      "outputs": [],
      "payable": false,
      "stateMutability": "nonpayable",
      "type": "function"
    },
    {
      "constant": true,
      "inputs": [
        {
          "name": "_upc",
          "type": "uint256"
        }
      ],
      "name": "fetchItemBufferOne",
      "outputs": [
        {
          "name": "itemSKU",
          "type": "uint256"
        },
        {
          "name": "itemUPC",
          "type": "uint256"
        },
        {
          "name": "ownerID",
          "type": "address"
        },
        {
          "name": "originBakerID",
          "type": "address"
        },
        {
          "name": "originBakerName",
          "type": "string"
        },
        {
          "name": "originBakerInformation",
          "type": "string"
        }
      ],
      "payable": false,
      "stateMutability": "view",
      "type": "function"
    },
    {
      "constant": true,
      "inputs": [
        {
          "name": "_upc",
          "type": "uint256"
        }
      ],
      "name": "fetchItemBufferTwo",
      "outputs": [
        {
          "name": "itemSKU",
          "type": "uint256"
        },
        {
          "name": "itemUPC",
          "type": "uint256"
        },
        {
          "name": "productID",
          "type": "uint256"
        },
        {
          "name": "productNotes",
          "type": "string"
        },
        {
          "name": "productPrice",
          "type": "uint256"
        },
        {
          "name": "itemState",
          "type": "uint256"
        },
        {
          "name": "deliveryAgentID",
          "type": "address"
        },
        {
          "name": "consumerID",
          "type": "address"
        }
      ],
      "payable": false,
      "stateMutability": "view",
      "type": "function"
    }
  ],
  "bytecode": "0x6080604052336000806101000a81548173ffffffffffffffffffffffffffffffffffffffff021916908373ffffffffffffffffffffffffffffffffffffffff1602179055506000809054906101000a900473ffffffffffffffffffffffffffffffffffffffff1673ffffffffffffffffffffffffffffffffffffffff16600073ffffffffffffffffffffffffffffffffffffffff167f5c486528ec3e3f0ea91181cff8116f02bfa350e03b8b6f12e00765adbb5af85c60405160405180910390a3620000da3362000124640100000000026401000000009004565b620000f4336200018e640100000000026401000000009004565b6200010e33620001f8640100000000026401000000009004565b60016005819055506001600481905550620003ba565b62000148816001620002626401000000000262001e38179091906401000000009004565b8073ffffffffffffffffffffffffffffffffffffffff167fb1a2e274930bb9817feac31253d4a493b288518279a4c31f5b1b8f92c1921faf60405160405180910390a250565b620001b2816002620002626401000000000262001e38179091906401000000009004565b8073ffffffffffffffffffffffffffffffffffffffff167f28b26e7a3d20aedbc5f8f2ebf7da671c0491723a2b78f47a097b0e46dee0714260405160405180910390a250565b6200021c816003620002626401000000000262001e38179091906401000000009004565b8073ffffffffffffffffffffffffffffffffffffffff167f5df38de6012bf22af34752ec3875e951e2c5481256d4f767ce35052fad66a87460405160405180910390a250565b600073ffffffffffffffffffffffffffffffffffffffff168173ffffffffffffffffffffffffffffffffffffffff16141515156200029f57600080fd5b620002ba828262000325640100000000026401000000009004565b151515620002c757600080fd5b60018260000160008373ffffffffffffffffffffffffffffffffffffffff1673ffffffffffffffffffffffffffffffffffffffff16815260200190815260200160002060006101000a81548160ff0219169083151502179055505050565b60008073ffffffffffffffffffffffffffffffffffffffff168273ffffffffffffffffffffffffffffffffffffffff16141515156200036357600080fd5b8260000160008373ffffffffffffffffffffffffffffffffffffffff1673ffffffffffffffffffffffffffffffffffffffff16815260200190815260200160002060009054906101000a900460ff16905092915050565b61206880620003ca6000396000f300608060405260043610610128576000357c0100000000000000000000000000000000000000000000000000000000900463ffffffff168063112940f91461012d578063192dfff9146101705780633d3f1aa1146101b357806341c0e1b51461020057806361e6982d1461021757806366187b5c1461022e57806366225ff91461025b578063715018a61461038a57806377c45913146103a15780638143bd0614610527578063834ff7391461053e57806383bf29ac146105995780638694bdc9146105dc5780638da5cb5b146106375780638f32d59b1461068e578063a26be999146106bd578063aa7c4f23146106ea578063ad7bec2514610701578063c70e9eec14610721578063c87fb2841461077c578063e543b5ea146108a5578063f2fde38b146108d2575b600080fd5b34801561013957600080fd5b5061016e600480360381019080803573ffffffffffffffffffffffffffffffffffffffff169060200190929190505050610915565b005b34801561017c57600080fd5b506101b1600480360381019080803573ffffffffffffffffffffffffffffffffffffffff169060200190929190505050610935565b005b3480156101bf57600080fd5b506101fe60048036038101908080359060200190929190803573ffffffffffffffffffffffffffffffffffffffff169060200190929190505050610955565b005b34801561020c57600080fd5b50610215610ad9565b005b34801561022357600080fd5b5061022c610b0c565b005b34801561023a57600080fd5b5061025960048036038101908080359060200190929190505050610b17565b005b34801561026757600080fd5b5061028660048036038101908080359060200190929190505050610c3c565b60405180898152602001888152602001878152602001806020018681526020018581526020018473ffffffffffffffffffffffffffffffffffffffff1673ffffffffffffffffffffffffffffffffffffffff1681526020018373ffffffffffffffffffffffffffffffffffffffff1673ffffffffffffffffffffffffffffffffffffffff168152602001828103825287818151815260200191508051906020019080838360005b8381101561034857808201518184015260208101905061032d565b50505050905090810190601f1680156103755780820380516001836020036101000a031916815260200191505b50995050505050505050505060405180910390f35b34801561039657600080fd5b5061039f610e24565b005b3480156103ad57600080fd5b506103cc60048036038101908080359060200190929190505050610ef6565b604051808781526020018681526020018573ffffffffffffffffffffffffffffffffffffffff1673ffffffffffffffffffffffffffffffffffffffff1681526020018473ffffffffffffffffffffffffffffffffffffffff1673ffffffffffffffffffffffffffffffffffffffff1681526020018060200180602001838103835285818151815260200191508051906020019080838360005b83811015610480578082015181840152602081019050610465565b50505050905090810190601f1680156104ad5780820380516001836020036101000a031916815260200191505b50838103825284818151815260200191508051906020019080838360005b838110156104e65780820151818401526020810190506104cb565b50505050905090810190601f1680156105135780820380516001836020036101000a031916815260200191505b509850505050505050505060405180910390f35b34801561053357600080fd5b5061053c611120565b005b34801561054a57600080fd5b5061057f600480360381019080803573ffffffffffffffffffffffffffffffffffffffff16906020019092919050505061112b565b604051808215151515815260200191505060405180910390f35b3480156105a557600080fd5b506105da600480360381019080803573ffffffffffffffffffffffffffffffffffffffff169060200190929190505050611148565b005b3480156105e857600080fd5b5061061d600480360381019080803573ffffffffffffffffffffffffffffffffffffffff169060200190929190505050611168565b604051808215151515815260200191505060405180910390f35b34801561064357600080fd5b5061064c611185565b604051808273ffffffffffffffffffffffffffffffffffffffff1673ffffffffffffffffffffffffffffffffffffffff16815260200191505060405180910390f35b34801561069a57600080fd5b506106a36111ae565b604051808215151515815260200191505060405180910390f35b3480156106c957600080fd5b506106e860048036038101908080359060200190929190505050611205565b005b3480156106f657600080fd5b506106ff611347565b005b61071f60048036038101908080359060200190929190505050611352565b005b34801561072d57600080fd5b50610762600480360381019080803573ffffffffffffffffffffffffffffffffffffffff169060200190929190505050611628565b604051808215151515815260200191505060405180910390f35b34801561078857600080fd5b506108a360048036038101908080359060200190929190803573ffffffffffffffffffffffffffffffffffffffff169060200190929190803590602001908201803590602001908080601f0160208091040260200160405190810160405280939291908181526020018383808284378201915050505050509192919290803590602001908201803590602001908080601f0160208091040260200160405190810160405280939291908181526020018383808284378201915050505050509192919290803590602001908201803590602001908080601f016020809104026020016040519081016040528093929190818152602001838380828437820191505050505050919291929080359060200190929190505050611645565b005b3480156108b157600080fd5b506108d060048036038101908080359060200190929190505050611941565b005b3480156108de57600080fd5b50610913600480360381019080803573ffffffffffffffffffffffffffffffffffffffff169060200190929190505050611a6f565b005b61091e3361112b565b151561092957600080fd5b61093281611a8e565b50565b61093e33611628565b151561094957600080fd5b61095281611ae8565b50565b816002600581111561096357fe5b6006600083815260200190815260200160002060090160009054906101000a900460ff16600581111561099257fe5b14151561099e57600080fd5b6006600084815260200190815260200160002060030160009054906101000a900473ffffffffffffffffffffffffffffffffffffffff168073ffffffffffffffffffffffffffffffffffffffff163373ffffffffffffffffffffffffffffffffffffffff16141515610a0f57600080fd5b60036006600086815260200190815260200160002060090160006101000a81548160ff02191690836005811115610a4257fe5b0217905550826006600086815260200190815260200160002060090160016101000a81548173ffffffffffffffffffffffffffffffffffffffff021916908373ffffffffffffffffffffffffffffffffffffffff1602179055507ff00b9a5725b80c54016f42114f6ed7792d22eecb116011c4afac29c57bef6c95846040518082815260200191505060405180910390a150505050565b610ae16111ae565b1515610aec57600080fd5b610af4611185565b73ffffffffffffffffffffffffffffffffffffffff16ff5b610b1533611b42565b565b8060036005811115610b2557fe5b6006600083815260200190815260200160002060090160009054906101000a900460ff166005811115610b5457fe5b141515610b6057600080fd5b610b6933611628565b1515610b7457600080fd5b336006600084815260200190815260200160002060090160016101000a81548173ffffffffffffffffffffffffffffffffffffffff021916908373ffffffffffffffffffffffffffffffffffffffff16021790555060046006600084815260200190815260200160002060090160006101000a81548160ff02191690836005811115610bfc57fe5b02179055507ffcc296b8bdd64e3f1d1faadef50cb2d6550f645316330fe57cb1dd7e0612ead0826040518082815260200191505060405180910390a15050565b60008060006060600080600080600660008a8152602001908152602001600020600001549750600660008a8152602001908152602001600020600101549650600660008a8152602001908152602001600020600601549550600660008a81526020019081526020016000206007018054600181600116156101000203166002900480601f016020809104026020016040519081016040528092919081815260200182805460018160011615610100020316600290048015610d3e5780601f10610d1357610100808354040283529160200191610d3e565b820191906000526020600020905b815481529060010190602001808311610d2157829003601f168201915b50505050509450600660008a8152602001908152602001600020600801549350600660008a815260200190815260200160002060090160009054906101000a900460ff166005811115610d8d57fe5b9250600660008a815260200190815260200160002060090160019054906101000a900473ffffffffffffffffffffffffffffffffffffffff169150600660008a8152602001908152602001600020600a0160009054906101000a900473ffffffffffffffffffffffffffffffffffffffff169050878787878787878797509750975097509750975097509750919395975091939597565b610e2c6111ae565b1515610e3757600080fd5b600073ffffffffffffffffffffffffffffffffffffffff166000809054906101000a900473ffffffffffffffffffffffffffffffffffffffff1673ffffffffffffffffffffffffffffffffffffffff167f5c486528ec3e3f0ea91181cff8116f02bfa350e03b8b6f12e00765adbb5af85c60405160405180910390a360008060006101000a81548173ffffffffffffffffffffffffffffffffffffffff021916908373ffffffffffffffffffffffffffffffffffffffff160217905550565b60008060008060608060066000888152602001908152602001600020600001549550600660008881526020019081526020016000206001015494506006600088815260200190815260200160002060020160009054906101000a900473ffffffffffffffffffffffffffffffffffffffff1693506006600088815260200190815260200160002060030160009054906101000a900473ffffffffffffffffffffffffffffffffffffffff169250600660008881526020019081526020016000206004018054600181600116156101000203166002900480601f01602080910402602001604051908101604052809291908181526020018280546001816001161561010002031660029004801561104d5780601f106110225761010080835404028352916020019161104d565b820191906000526020600020905b81548152906001019060200180831161103057829003601f168201915b50505050509150600660008881526020019081526020016000206005018054600181600116156101000203166002900480601f0160208091040260200160405190810160405280929190818152602001828054600181600116156101000203166002900480156110fe5780601f106110d3576101008083540402835291602001916110fe565b820191906000526020600020905b8154815290600101906020018083116110e157829003601f168201915b5050505050905085858585858595509550955095509550955091939550919395565b61112933611b9c565b565b6000611141826002611bf690919063ffffffff16565b9050919050565b61115133611168565b151561115c57600080fd5b61116581611c8a565b50565b600061117e826001611bf690919063ffffffff16565b9050919050565b60008060009054906101000a900473ffffffffffffffffffffffffffffffffffffffff16905090565b60008060009054906101000a900473ffffffffffffffffffffffffffffffffffffffff1673ffffffffffffffffffffffffffffffffffffffff163373ffffffffffffffffffffffffffffffffffffffff1614905090565b806004600581111561121357fe5b6006600083815260200190815260200160002060090160009054906101000a900460ff16600581111561124257fe5b14151561124e57600080fd5b6112573361112b565b151561126257600080fd5b60066000838152602001908152602001600020600a0160009054906101000a900473ffffffffffffffffffffffffffffffffffffffff168073ffffffffffffffffffffffffffffffffffffffff163373ffffffffffffffffffffffffffffffffffffffff161415156112d357600080fd5b60056006600085815260200190815260200160002060090160006101000a81548160ff0219169083600581111561130657fe5b02179055507fa8142743f8f70a4c26f3691cf4ed59718381fb2f18070ec52be1f1022d855557836040518082815260200191505060405180910390a1505050565b61135033611ce4565b565b806001600581111561136057fe5b6006600083815260200190815260200160002060090160009054906101000a900460ff16600581111561138f57fe5b14151561139b57600080fd5b60066000838152602001908152602001600020600801548034101515156113c157600080fd5b826000806113ce3361112b565b15156113d957600080fd5b336006600088815260200190815260200160002060020160006101000a81548173ffffffffffffffffffffffffffffffffffffffff021916908373ffffffffffffffffffffffffffffffffffffffff1602179055503360066000888152602001908152602001600020600a0160006101000a81548173ffffffffffffffffffffffffffffffffffffffff021916908373ffffffffffffffffffffffffffffffffffffffff16021790555060026006600088815260200190815260200160002060090160006101000a81548160ff021916908360058111156114b657fe5b02179055506006600087815260200190815260200160002060030160009054906101000a900473ffffffffffffffffffffffffffffffffffffffff1673ffffffffffffffffffffffffffffffffffffffff166108fc60066000898152602001908152602001600020600801549081150290604051600060405180830381858888f1935050505015801561154d573d6000803e3d6000fd5b507f92f64ca637d023f354075a4be751b169c1a8a9ccb6d33cdd0cb3520543995727866040518082815260200191505060405180910390a160066000848152602001908152602001600020600801549150813403905060066000848152602001908152602001600020600a0160009054906101000a900473ffffffffffffffffffffffffffffffffffffffff1673ffffffffffffffffffffffffffffffffffffffff166108fc829081150290604051600060405180830381858888f1935050505015801561161f573d6000803e3d6000fd5b50505050505050565b600061163e826003611bf690919063ffffffff16565b9050919050565b61164e33611168565b151561165957600080fd5b6101806040519081016040528060055481526020018781526020018673ffffffffffffffffffffffffffffffffffffffff1681526020018673ffffffffffffffffffffffffffffffffffffffff16815260200185815260200184815260200187600554018152602001838152602001828152602001600060058111156116db57fe5b8152602001600073ffffffffffffffffffffffffffffffffffffffff168152602001600073ffffffffffffffffffffffffffffffffffffffff1681525060066000888152602001908152602001600020600082015181600001556020820151816001015560408201518160020160006101000a81548173ffffffffffffffffffffffffffffffffffffffff021916908373ffffffffffffffffffffffffffffffffffffffff16021790555060608201518160030160006101000a81548173ffffffffffffffffffffffffffffffffffffffff021916908373ffffffffffffffffffffffffffffffffffffffff16021790555060808201518160040190805190602001906117e9929190611f97565b5060a0820151816005019080519060200190611806929190611f97565b5060c0820151816006015560e082015181600701908051906020019061182d929190611f97565b5061010082015181600801556101208201518160090160006101000a81548160ff0219169083600581111561185e57fe5b02179055506101408201518160090160016101000a81548173ffffffffffffffffffffffffffffffffffffffff021916908373ffffffffffffffffffffffffffffffffffffffff16021790555061016082015181600a0160006101000a81548173ffffffffffffffffffffffffffffffffffffffff021916908373ffffffffffffffffffffffffffffffffffffffff1602179055509050506001600554016005819055507f12d0612eec052854649751b41d814a88302236d32a20b06aaff36fc2aecc9060866040518082815260200191505060405180910390a1505050505050565b806000600581111561194f57fe5b6006600083815260200190815260200160002060090160009054906101000a900460ff16600581111561197e57fe5b14151561198a57600080fd5b6006600083815260200190815260200160002060030160009054906101000a900473ffffffffffffffffffffffffffffffffffffffff168073ffffffffffffffffffffffffffffffffffffffff163373ffffffffffffffffffffffffffffffffffffffff161415156119fb57600080fd5b60016006600085815260200190815260200160002060090160006101000a81548160ff02191690836005811115611a2e57fe5b02179055507fa96ae0fc3224ebd79eebfe54bd130cc9cb94416cddd1f2386115e00b72532468836040518082815260200191505060405180910390a1505050565b611a776111ae565b1515611a8257600080fd5b611a8b81611d3e565b50565b611aa2816002611e3890919063ffffffff16565b8073ffffffffffffffffffffffffffffffffffffffff167f28b26e7a3d20aedbc5f8f2ebf7da671c0491723a2b78f47a097b0e46dee0714260405160405180910390a250565b611afc816003611e3890919063ffffffff16565b8073ffffffffffffffffffffffffffffffffffffffff167f5df38de6012bf22af34752ec3875e951e2c5481256d4f767ce35052fad66a87460405160405180910390a250565b611b56816002611ee890919063ffffffff16565b8073ffffffffffffffffffffffffffffffffffffffff167fe3f5ed5f263f1f01764a96edfc7d025f511ec5f7d180e8816908b78bcf74f09860405160405180910390a250565b611bb0816003611ee890919063ffffffff16565b8073ffffffffffffffffffffffffffffffffffffffff167f8251319b90faed74a7f1215b9b00d161c9f4810319ae51806495b9dffb65702a60405160405180910390a250565b60008073ffffffffffffffffffffffffffffffffffffffff168273ffffffffffffffffffffffffffffffffffffffff1614151515611c3357600080fd5b8260000160008373ffffffffffffffffffffffffffffffffffffffff1673ffffffffffffffffffffffffffffffffffffffff16815260200190815260200160002060009054906101000a900460ff16905092915050565b611c9e816001611e3890919063ffffffff16565b8073ffffffffffffffffffffffffffffffffffffffff167fb1a2e274930bb9817feac31253d4a493b288518279a4c31f5b1b8f92c1921faf60405160405180910390a250565b611cf8816001611ee890919063ffffffff16565b8073ffffffffffffffffffffffffffffffffffffffff167f9c3d93006f941d0bf55ca2d95ec93e36ba76fb3c2050d48a1e08c6f0ee7b580f60405160405180910390a250565b600073ffffffffffffffffffffffffffffffffffffffff168173ffffffffffffffffffffffffffffffffffffffff1614151515611d7a57600080fd5b8073ffffffffffffffffffffffffffffffffffffffff166000809054906101000a900473ffffffffffffffffffffffffffffffffffffffff1673ffffffffffffffffffffffffffffffffffffffff167f5c486528ec3e3f0ea91181cff8116f02bfa350e03b8b6f12e00765adbb5af85c60405160405180910390a3806000806101000a81548173ffffffffffffffffffffffffffffffffffffffff021916908373ffffffffffffffffffffffffffffffffffffffff16021790555050565b600073ffffffffffffffffffffffffffffffffffffffff168173ffffffffffffffffffffffffffffffffffffffff1614151515611e7457600080fd5b611e7e8282611bf6565b151515611e8a57600080fd5b60018260000160008373ffffffffffffffffffffffffffffffffffffffff1673ffffffffffffffffffffffffffffffffffffffff16815260200190815260200160002060006101000a81548160ff0219169083151502179055505050565b600073ffffffffffffffffffffffffffffffffffffffff168173ffffffffffffffffffffffffffffffffffffffff1614151515611f2457600080fd5b611f2e8282611bf6565b1515611f3957600080fd5b60008260000160008373ffffffffffffffffffffffffffffffffffffffff1673ffffffffffffffffffffffffffffffffffffffff16815260200190815260200160002060006101000a81548160ff0219169083151502179055505050565b828054600181600116156101000203166002900490600052602060002090601f016020900481019282601f10611fd857805160ff1916838001178555612006565b82800160010185558215612006579182015b82811115612005578251825591602001919060010190611fea565b5b5090506120139190612017565b5090565b61203991905b8082111561203557600081600090555060010161201d565b5090565b905600a165627a7a723058208bd14d48ff33ee5205c92f0b09a4a362af3318de2d3f86200fefae45c773daa80029",
  "source": "pragma solidity ^0.4.24;\n// Define a contract 'Supplychain'\nimport \"../bakeryaccesscontrol/BakerRole.sol\";\nimport \"../bakeryaccesscontrol/ConsumerRole.sol\";\nimport \"../bakeryaccesscontrol/DeliveryAgentRole.sol\";\nimport \"../coffeecore/Ownable.sol\";\n\n  contract SupplyChain is Ownable, BakerRole, ConsumerRole, DeliveryAgentRole{\n\n  // Define 'owner'\n  // address owner;\n\n  // Define a variable called 'upc' for Universal Product Code (UPC)\n  uint  upc;\n\n  // Define a variable called 'sku' for Stock Keeping Unit (SKU)\n  uint  sku;\n\n  // Define a public mapping 'items' that maps the UPC to an Item.\n  mapping (uint => Item) items;\n\n  // Define a public mapping 'itemsHistory' that maps the UPC to an array of TxHash, \n  // that   its journey through the supply chain -- to be sent from DApp.\n  mapping (uint => string[]) itemsHistory;\n  \n  // Define enum 'State' with the following values:\n  enum State \n  { \n    Baked,      // 0\n    ForSale,    // 1\n    Sold,       // 2\n    Shipped,    // 3\n    Delivered,  // 4\n    Received   // 5\n    \n    }\n\n  State constant defaultState = State.Baked;\n\n  // Define a struct 'Item' with the following fields:\n  struct Item {\n    uint    sku;  // Stock Keeping Unit (SKU)\n    uint    upc; // Universal Product Code (UPC), generated by the Farmer, goes on the package, can be verified by the Consumer\n    address ownerID;  // Metamask-Ethereum address of the current owner as the product moves through 8 stages\n    address originBakerID; // Metamask-Ethereum address of the Farmer\n    string  originBakerName; // Farmer Name\n    string  originBakerInformation;  // Farmer Information\n    uint    productID;  // Product ID potentially a combination of upc + sku\n    string  productNotes; // Product Notes\n    uint    productPrice; // Product Price\n    State   itemState;  // Product State as represented in the enum above\n    address deliveryAgentID;  // Metamask-Ethereum address of the Distributor\n    address consumerID; // Metamask-Ethereum address of the Consumer\n  }\n\n  // Define 4 events with the same 4 state values and accept 'upc' as input argument\n     event Baked(uint upc);\n   event ForSale(uint upc);\n  event Sold(uint upc);\n  event Shipped(uint upc);\n  event Delivered(uint upc);\n  event Received(uint upc);\n \n  // Define a modifer that checks to see if msg.sender == owner of the contract\n  // modifier onlyOwner() {\n  //   require(msg.sender == owner);\n  //   _;\n  // }\n\n  // Define a modifer that verifies the Caller\n  modifier verifyCaller (address _address) {\n    require(msg.sender == _address); \n     \n    _;\n  }\n\n  // Define a modifier that checks if the paid amount is sufficient to cover the price\n  modifier paidEnough(uint _price) { \n    require(msg.value >= _price); \n    _;\n  }\n  \n  // Define a modifier that checks the price and refunds the remaining balance\n  modifier checkValue(uint _upc) {\n    _;\n    uint _price = items[_upc].productPrice;\n    uint amountToReturn = msg.value - _price;\n    items[_upc].consumerID.transfer(amountToReturn);\n  }\n\n \n \n\n  // Define a modifier that checks if an item.state of a upc is ForSale\n  modifier baked(uint _upc) {\n    require(items[_upc].itemState == State.Baked);\n\n    _;\n  }\n \n\n  // Define a modifier that checks if an item.state of a upc is ForSale\n  modifier forSale(uint _upc) {\n    require(items[_upc].itemState == State.ForSale);\n\n    _;\n  }\n\n  // Define a modifier that checks if an item.state of a upc is Sold\n  modifier sold(uint _upc) {\n    require(items[_upc].itemState == State.Sold);\n    _;\n  }\n  \n  // Define a modifier that checks if an item.state of a upc is Shipped\n  modifier shipped(uint _upc) {\n    require(items[_upc].itemState == State.Shipped);\n\n    _;\n  }\n\n  // Define a modifier that checks if an item.state of a upc is delivered\n  modifier delivered(uint _upc) {\n    require(items[_upc].itemState == State.Delivered);\n\n    _;\n  }\n  // Define a modifier that checks if an item.state of a upc is Received\n  modifier received(uint _upc) {\n    require(items[_upc].itemState == State.Received);\n\n    _;\n  }\n\n  \n\n  // In the constructor set 'owner' to the address that instantiated the contract\n  // and set 'sku' to 1\n  // and set 'upc' to 1\n  constructor() public payable {\n    // owner = msg.sender;\n    sku = 1;\n    upc = 1;\n  }\n\n  // Define a function 'kill' if required\n  function kill() onlyOwner() public {\n       selfdestruct(owner());\n    \n  }\n\n  // Define a function 'bakeCookies' that allows a farmer to mark an item 'Harvested'\n  function bakeCookies(uint _upc, address _originBakerID, string _originBakerName, string _originBakerInformation, string  _productNotes, uint _productPrice) onlyBaker()  public {\n// Add the new item  \n    items[_upc] = Item({\n      sku: sku,\n      upc: _upc,\n      ownerID: _originBakerID,\n      productID: sku + _upc ,\n      originBakerID: _originBakerID,\n      originBakerName: _originBakerName,\n      originBakerInformation: _originBakerInformation ,\n      productNotes: _productNotes,\n      itemState: State.Baked,\n      productPrice: _productPrice,\n      deliveryAgentID:address(0),\n      consumerID: address(0)\n       });\n\n       // Increment sku\n    sku = sku + 1;\n    // Emit the appropriate event\n    emit Baked(_upc);\n  }\n  \n\n  // Define a function 'processtItem' that allows a farmer to mark an item 'Processed'\n  function addCookieJarToOnlineStore(uint _upc)  public \n  // Call modifier to check if upc has passed previous supply chain stage\n  \n  baked(_upc)\n  // Call modifier to verify caller of this function\n  \n          verifyCaller(items[_upc].originBakerID)\n\n  {\n    // Update the appropriate fields\n    items[_upc].itemState = State.ForSale;\n    // Emit the appropriate event\n    emit ForSale(_upc);\n  }\n\n  // Define a function 'packItem' that allows a farmer to mark an item 'Packed'\n  function buyCookieJar(uint _upc) public payable\n  // Call modifier to check if upc has passed previous supply chain stage\n  forSale(_upc)\n    // Call modifer to check if buyer has paid enough\n    paidEnough(items[_upc].productPrice)\n    // Call modifer to send any excess ether back to buyer\n    checkValue(_upc)\n  // Call modifier to verify caller of this function\n   onlyConsumer()\n  {\n\n        items[_upc].ownerID = msg.sender;\n        items[_upc].consumerID = msg.sender;\n        items[_upc].itemState = State.Sold; \n        // Transfer money to farmer\n        items[_upc].originBakerID.transfer(items[_upc].productPrice);\n        // emit the appropriate event\n        emit Sold(_upc);\n\n \n  }\n\n  // Define a function 'sellItem' that allows a farmer to mark an item 'ForSale'\n  function shipCookieJar(uint _upc,address _deliveryAgentID) public \n  // Call modifier to check if upc has passed previous supply chain stage\n    sold(_upc)\n \n  // Call modifier to verify caller of this function\n            verifyCaller(items[_upc].originBakerID)\n\n  {\n    // Update the appropriate fields\n        items[_upc].itemState = State.Shipped;\n        items[_upc].deliveryAgentID = _deliveryAgentID;\n\n    // Emit the appropriate event\n        emit Shipped(_upc);\n\n  }\n\n  // Define a function 'buyItem' that allows the disributor to mark an item 'Sold'\n  // Use the above defined modifiers to check if the item is available for sale, if the buyer has paid enough, \n  // and any excess ether sent is refunded back to the buyer\n  function DeleverCookieJAr(uint _upc) public  \n    // Call modifier to check if upc has passed previous supply chain stage\n    shipped(_upc)\n    // Call modifier to verify caller of this function\n    onlyDeliveryAgent()\n \n    {\n    \n    // Update the appropriate fields - ownerID, distributorID, itemState\n    \n    // Transfer money to farmer\n            items[_upc].deliveryAgentID = msg.sender;\n\n            items[_upc].itemState = State.Delivered;\n\n    // emit the appropriate event\n            emit Delivered(_upc);\n\n  }\n\n  \n\n  // Define a function 'receiveItem' that allows the retailer to mark an item 'Received'\n  // Use the above modifiers to check if the item is shipped\n  function receiveItem(uint _upc) public \n    // Call modifier to check if upc has passed previous supply chain stage\n    delivered(_upc)\n    // Access Control List enforced by calling Smart Contract / DApp\n    onlyConsumer()\n    verifyCaller(items[_upc].consumerID)\n\n    {\n    // Update the appropriate fields - ownerID, retailerID, itemState\n                items[_upc].itemState = State.Received;\n\n    // Emit the appropriate event\n                emit Received(_upc);\n\n  }\n\n   \n  // Define a function 'fetchItemBufferOne' that fetches the data\n  function fetchItemBufferOne(uint _upc) public view returns \n  (\n  uint    itemSKU,\n  uint    itemUPC,\n  address ownerID,\n  address originBakerID,\n  string  originBakerName,\n  string  originBakerInformation\n   ) \n  {\n  // Assign values to the 8 parameters\n \n  itemSKU =   items[_upc].sku ;\n   itemUPC  = items[_upc].upc;\n  ownerID  = items[_upc].ownerID;\n  originBakerID  = items[_upc].originBakerID;\n  originBakerName  = items[_upc].originBakerName;\n  originBakerInformation  = items[_upc].originBakerInformation;\n   return \n  (\n  itemSKU ,\n  itemUPC,\n  ownerID,\n  originBakerID,\n  originBakerName,\n  originBakerInformation\n   );\n  }\n\n  // Define a function 'fetchItemBufferTwo' that fetches the data\n  function fetchItemBufferTwo(uint _upc) public view returns \n  (\n  uint    itemSKU,\n  uint    itemUPC,\n  uint    productID,\n  string  productNotes,\n  uint    productPrice,\n  uint    itemState,\n  address deliveryAgentID,\n   address consumerID\n  ) \n  {\n\n  itemSKU =   items[_upc].sku ;\n  itemUPC  = items[_upc].upc;\n  productID  = items[_upc].productID;\n  productNotes  = items[_upc].productNotes;\n  productPrice  = items[_upc].productPrice;\n  itemState  = uint(items[_upc].itemState); \n  deliveryAgentID  = items[_upc].deliveryAgentID;\n  consumerID  = items[_upc].consumerID;\n    // Assign values to the 9 parameters\n    \n  return \n  (\n  itemSKU,\n  itemUPC,\n  productID,\n  productNotes,\n  productPrice,\n  itemState,\n  deliveryAgentID,\n  consumerID\n  );\n  }\n}\n",
  "sourcePath": "/Users/admin/Documents/projects/BLOCKCHAIN-UDACITY/Project-6b/project-6/contracts/coffeebase/SupplyChain.sol",
  "compiler": {
    "name": "solc",
    "version": "0.4.25+commit.59dbf8f1.Emscripten.clang"
  },
  "schemaVersion": "2.0.2",
  "updatedAt": "2019-03-03T19:01:52.326Z"
}